:020000040800F2
:10000000005000209524000891060008930600087F
:1000100095060008970600089906000800000000F1
:10002000000000000000000000000000111900089E
:100030009B06000800000000B1190008F51900082F
:10004000DD240008DD240008DD240008DD2400088C
:10005000DD240008DD240008DD240008DD2400087C
:10006000DD240008DD240008DD240008DD2400086C
:10007000DD240008DD240008DD240008DD2400085C
:10008000DD240008DD240008DD240008DD2400084C
:10009000DD240008DD240008DD240008DD2400083C
:1000A000DD2400089D060008DD240008DD2400088A
:1000B000DD240008DD240008DD240008DD2400081C
:1000C000DD240008DD240008DD240008DD2400080C
:1000D000DD240008DD240008DD240008DD240008FC
:1000E000DD240008DD240008DD24000800000000F5
:1000F0000000000000000000000000000000000000
:0C01000000000000000000005FF808F1A3
:10011000844641EA000313F0030349D1403A23D354
:100120000B6803604B6843608B688360CB68C36077
:100130000B6903614B6943618B698361CB69C3615F
:100140000B6A03624B6A43628B6A8362CB6AC36247
:100150000B6B03634B6B43638B6B8363CB6BC3632F
:1001600040304031403ADBD230320BD30B68036071
:100170004B6843608B688360CB68C360103010317C
:10018000103AF3D20C3205D351F8043B40F8043B4B
:10019000043AF9D2043208D0D2071CBF11F8013B4F
:1001A00000F8013B01D30B8803806046704700BF15
:1001B000082A13D38B07B1D010F00303AED0C3F1DC
:1001C0000403D21ADB071CBF11F8013B00F8013B06
:1001D000A4D331F8023B20F8023B9FE7043AD9D37D
:1001E000013A11F8013B00F8013BF9D20B7803709A
:1001F0004B7843708B7883706046704700F1340110
:1002000091E838009C46A6464CF8045D90E8FF0F44
:10021000E54600BD90EC210B704700BF80EC210B40
:10022000704700BF90EC200B704700BF80EC200BA4
:10023000704700BFD0EC200B704700BFC0EC200B14
:10024000704700BFF0EC0201F0EC0211F0EC02216B
:10025000F0EC0231F0EC0241F0EC0251F0EC026102
:10026000F0EC0271F0EC0281F0EC0291F0EC02A1F2
:10027000F0EC02B1F0EC02C1F0EC02D1F0EC02E1E2
:10028000F0EC02F1704700BFE0EC0201E0EC02117B
:10029000E0EC0221E0EC0231E0EC0241E0EC025142
:1002A000E0EC0261E0EC0271E0EC0281E0EC029132
:1002B000E0EC02A1E0EC02B1E0EC02C1E0EC02D122
:1002C000E0EC02E1E0EC02F1704700BFB0FC01811C
:1002D000B0FC0191B0FC01A1B0FC01B1704700BFBE
:1002E000A0FC0181A0FC0191A0FC01A1A0FC01B136
:1002F000704700BFEC4600B52DE900502DE9FF1F07
:100300004FF000032DE90C0001A902F02FFBDDF8EE
:1003100040E012B0704700BFEC4600B52DE9005038
:100320002DE9FF1F4FF000032DE90C0001A902F099
:100330005DFBDDF840E012B0704700BFEC4600B551
:100340002DE900502DE9FF1F4FF000032DE90C00AF
:1003500001A902F06DFBDDF840E012B0704700BF6C
:10036000EC4600B52DE900502DE9FF1F4FF00003CA
:100370002DE90C0001AB02F02DFBDDF840E012B0DE
:10038000704700BFEC4600B52DE900502DE9FF1F76
:100390004FF000032DE90C0001AA02F09FFBDDF8ED
:1003A00040E012B0704700BF10B5054C237833B958
:1003B000044B13B10448AFF300800123237010BD38
:1003C00044040020000000006434000808B5034B1A
:1003D0001BB103490348AFF3008008BD00000000D3
:1003E0004804002064340008034B0360034B0B6097
:1003F00080231360704700BF600600206004002067
:1004000010B588B00023049305930693079303F176
:10041000804303F504339A6942F010029A619A69A5
:1004200002F010020092009A9A6942F020029A614A
:100430009A6902F020020192019A9A6942F004023C
:100440009A619A6902F004020292029A9A6942F051
:1004500008029A619B6903F008030393039B4FF41E
:10046000604304930324059404A9114800F0C0F9E3
:100470000494059404A90F4800F0BAF949F6FF73F3
:100480000493059404A90C4800F0B2F94FF6FF73E9
:100490000493059404A9094800F0AAF9084A53688E
:1004A00043F0E06343F40043536008B010BD00BF65
:1004B000001001400014014000080140000C014000
:1004C0000000014008B5012001F08EF9FBE70000B3
:1004D00008B5044A1368013313604FF47A7001F0D1
:1004E00083F9F6E7BC06002008B50268034B9A4280
:1004F00000D008BD00F0EEF8FBE700BF002C014083
:1005000072B6FEE700B591B02822002106A802F0DD
:100510000BF80023019302930393049305930223A2
:10052000069301230A9310230B9306A800F02AFBDD
:1005300068B90F2301930021029103910491059161
:1005400001A800F0FBFD20B911B05DF804FBFFF736
:10055000D7FFFFF7D5FF000000B58FB000F0A8F877
:10056000FFF7D0FFFFF74CFF124C0DF11C0CA64615
:10057000BEE80F00ACE80F009EE807008CE807001B
:10058000002107A801F0FBF80B4B1860EE4604F1C0
:100590001C0CBCE80F00AEE80F009CE807008EE8DA
:1005A00007000021684601F0EAF8044B186001F0EA
:1005B000E1F8FEE77C340008B8060020B40600200D
:1005C0007047000000B583B0114B9A6942F00102F8
:1005D0009A619A6902F001020092009ADA6942F087
:1005E0008052DA61DB6903F080530193019B0022A2
:1005F0000F216FF0010000F09DF8064A536823F0C8
:10060000E06343F00073536003B05DF804FB00BF88
:10061000001002400000014000B589B001460022F0
:10062000192000F087F8192000F0CAF8144B9A69D5
:1006300042F400629A619B6903F400630193019B99
:1006400002A903A800F0A4FE00F092FE0D4BA3FB4C
:1006500000239B0C013B0C480C4A026040F2E7323D
:10066000C260436000230361836001F00DF818B19C
:10067000012009B05DF804FB034800F0BDFEF8E777
:100680000010024083DE1B43C0060020002C014006
:10069000FEE7FEE7FEE7FEE7FEE7704708B5024823
:1006A00000F0FAFE08BD00BFC00600207047000041
:1006B00008B5074A136843F010031360032000F0E5
:1006C0001BF80F20FFF7A8FFFFF77CFF002008BDF5
:1006D00000200240034A1168034B1B780B4413604F
:1006E000704700BF0807002004000020014B186875
:1006F000704700BF0807002010B50446C31E042B36
:100700000FD80A4AD36823F4E0631B041B0C2402AD
:1007100004F4E064234343F0BF6343F40033D36045
:1007200010BD92210248FFF74BFFEAE700ED00E021
:10073000E034000870B505460C4616460F2A25D849
:100740000F2C28D81B4BDB68C3F30223C3F107012E
:10075000042928BF04211A1D062A21D9033B4FF082
:10076000FF3202FA01F124EA01049C4002FA03F389
:1007700026EA03063443002D14DB2401E4B205F11C
:10078000604505F5614585F8004370BDAA210A481A
:10079000FFF716FFD4E7AB210748FFF711FFD1E7BA
:1007A0000023DCE705F00F052401E4B2034B5C55A0
:1007B000EBE700BF00ED00E0E034000814ED00E0DE
:1007C00010B5041E0ADB002C07DB04F01F026409CD
:1007D00001239340044A42F8243010BDBE2103484F
:1007E000FFF7EEFEEFE700BF00E100E0E0340008B5
:1007F0002DE9F04383B007460E467D4B984213D057
:1008000003F5806398420FD003F5806398420BD0C4
:1008100003F58063984207D003F58063984203D0C4
:10082000BD217448FFF7CCFE33689AB212B11B0C9D
:100830001B041BB1BE216F48FFF7C2FE7368012B7A
:100840001ED9112B1CD0022B1AD0122B18D06A4A99
:10085000934215D002F58012934211D002F5801216
:1008600093420DD0A2F5F812934209D002F58012FE
:10087000934205D002F58012934201D0032B03D19D
:100880004FF000094D46EDE0BF215A48FFF798FEB2
:10089000F6E75A4A934210D007D9594A93420CD0EE
:1008A00002F58032934208D018E0A2F580129342FC
:1008B00003D002F5702293420CD1B368022B7FD88B
:1008C000B368002B00F08880012B7ED07C614FF054
:1008D000080903E0A2F580129342EED0B8F1FF0FB1
:1008E0007DD83846B8F1FF0F7BD8AA0003680F21E6
:1008F000914023EA010309FA02F21343036073688B
:1009000013F0805F00F0AD803E4B9A6942F0010227
:100910009A619B6903F001030193019BAA08911C52
:10092000394B53F8210005F0030399000F238B4046
:1009300020EA03002E4B9F4268D003F580639F425C
:1009400000F0E28003F580639F4200F0DF8003F552
:1009500080639F4249D0042359E0F368013B022B96
:1009600002D8D6F80C90B9E7D5212248FFF728FE27
:10097000F7E7F368013B022B03D8F36803F104099E
:10098000ACE7DC211B48FFF71BFEF6E7F368013BF1
:10099000022B03D8F36803F108099FE7E321154808
:1009A000FFF70EFEF6E7F368013B022B03D8F3686E
:1009B00003F10C0992E7EA210E48FFF701FEF6E782
:1009C000F7210C48FFF7FCFD7AE73C614FF008097E
:1009D00084E74FF0000981E74FF004097EE7381DF6
:1009E00080E7A5F10802920080E703230FE000BF33
:1009F0000008014018350008000011100000221006
:100A000000003110001002400000014000238B4024
:100A1000034302324C4941F82230736813F4803F9B
:100A200076D04A4A136843EA08031360736813F4E4
:100A3000003F73D0454A536843EA08035360736824
:100A400013F4801F70D0414A936843EA080393600F
:100A5000736813F4001F6DD03C4AD36843EA08035F
:100A6000D3600135336833FA05F269D00124AC4014
:100A700003EA040834EA0303F3D1354B9F4213D051
:100A800003F580639F420FD003F580639F420BD034
:100A900003F580639F4207D003F580639F4203D034
:100AA000CD212C48FFF78CFD7368122B3FF6F1AE79
:100AB000122B3FF613AF01A252F823F0BB08000837
:100AC0005B0900088D090008D3090008DD0800084B
:100AD000DD080008DD080008DD080008DD08000862
:100AE000DD080008DD080008DD080008DD08000852
:100AF000DD080008DD080008DD080008DD08000842
:100B000073090008A7090008012380E702237EE794
:100B10000E4A136823EA0803136087E70B4A5368F9
:100B200023EA080353608AE7084A936823EA080324
:100B300093608DE7054AD36823EA0803D36090E702
:100B400003B0BDE8F08300BF000001400004014095
:100B5000000801401835000882B0084B1B68084A9D
:100B6000A2FB03235B0A00FB03F3019300BF019B7D
:100B70005A1E0192002BF9D102B0704700000020EC
:100B8000D34D6210002800F0898270B582B004460F
:100B9000036813B113F00F0F2AD0236813F0010F6D
:100BA00040D063682BB1B3F5803F02D0B3F5A02FDE
:100BB00024D19C4B5B6803F00C03042B29D0994B88
:100BC0005B6803F00C03082B1ED06368B3F5803F0D
:100BD00055D0002B69D103F1804303F504331A6823
:100BE00022F480321A601A6822F480221A604BE0E4
:100BF00040F267118C48FFF7E3FCCEE740F26D113D
:100C00008948FFF7DDFCD4E7864B5B6813F4803F2F
:100C1000DBD0844B1B6813F4003F03D06368002BC8
:100C200000F03E82236813F0020F00F089802369F0
:100C3000012B63D863691F2B66D87A4B5B6813F06E
:100C40000C0F6CD0774B5B6803F00C03082B61D062
:100C50002369002B00F09A80744B01221A60FFF781
:100C600045FD05466F4B1B6813F0020F40F0858071
:100C7000FFF73CFD401B0228F4D9032015E2694A26
:100C8000136843F480331360636843B3FFF72EFDAA
:100C90000546644B1B6813F4003FC3D1FFF726FDE4
:100CA000401B6428F5D90320FFE1B3F5A02F09D03C
:100CB0005C4B1A6822F480321A601A6822F480228F
:100CC0001A60E1E703F18043A3F53C331A6842F46C
:100CD00080221A601A6842F480321A60D4E7FFF763
:100CE00005FD05464F4B1B6813F4003F9AD0FFF7F4
:100CF000FDFC401B6428F5D90320D6E140F2A11188
:100D00004948FFF75DFC95E74FF4D1714648FFF77E
:100D100057FC92E7434B5B6813F4803F98D1414BFB
:100D20001B6813F0020F03D02369012B40F0BA8136
:100D30003C4A136823F0F803616943EAC103136076
:100D4000236813F0080F3CD0A369012B30D8A369A6
:100D5000002B6FD0354B0122C3F88024FFF7C6FC6F
:100D60000546304B5B6A13F0020F27D1FFF7BEFC3C
:100D7000401B0228F5D9032097E12A4A136823F083
:100D8000F803616943EAC1031360D9E7274B0022E6
:100D90001A60FFF7ABFC0546224B1B6813F0020FED
:100DA000CED0FFF7A3FC401B0228F5D903207CE13D
:100DB0004FF4F1711C48FFF703FCC8E70120FFF76F
:100DC000CBFE236813F0040F00F0A480E368012B2E
:100DD00001D9052B41D1134BDB6913F0805F42D160
:100DE000104BDA6942F08052DA61DB6903F080531C
:100DF0000193019B01250E4B1B6813F4807F34D0B7
:100E0000E368012B45D0002B5BD103F1804303F550
:100E100004331A6A22F001021A621A6A22F00402EA
:100E20001A623BE0001002405035000800004242C8
:100E300000700040A14B0022C3F88024FFF756FC4D
:100E400005469F4B5B6A13F0020FBAD0FFF74EFCCA
:100E5000401B0228F5D9032027E140F211219948CF
:100E6000FFF7AEFBB7E70025C5E7974A136843F4E1
:100E700080731360FFF73AFC0646934B1B6813F42C
:100E8000807FBDD1FFF732FC801B6428F5D9032099
:100E90000BE18B4A136A43F001031362E36833B337
:100EA000FFF724FC0646864B1B6A13F0020F2FD176
:100EB000FFF71CFC801B41F288339842F3D90320D2
:100EC000F3E0052B09D07E4B1A6A22F001021A6268
:100ED0001A6A22F004021A62E0E7794B1A6A42F0B9
:100EE00004021A621A6A42F001021A62D6E7FFF798
:100EF000FDFB0646724B1B6A13F0020F08D0FFF78A
:100F0000F5FB801B41F288339842F3D90320CCE0F3
:100F1000002D53D1E369022B56D8E369002B00F072
:100F2000C380674A526802F00C02082A00F0A680CB
:100F3000022B40F08F80236A13B1B3F5803F49D173
:100F4000636A4BB3B3F5802F26D0B3F5002F23D0BF
:100F5000B3F5402F20D0B3F5801F1DD0B3F5A01FEF
:100F60001AD0B3F5C01F17D0B3F5E01F14D0B3F5F6
:100F7000001F11D0B3F5101F0ED0B3F5201F0BD0FA
:100F8000B3F5301F08D0B3F5401F05D0B3F5501F9F
:100F900002D0B3F5601F23D1484B00221A66FFF739
:100FA000A5FB0546464B1B6813F0007F1ED0FFF7DC
:100FB0009DFB401B0228F5D9032076E0404AD36907
:100FC00023F08053D361A5E740F2AF213D48FFF7FE
:100FD000F7FAA2E74FF42E713A48FFF7F1FAAFE7BC
:100FE00040F2B9213748FFF7EBFAD5E7236AB3F5AA
:100FF000803F1AD032494B6823F47413226A606A26
:10100000024313434B602D4B01221A66FFF76EFB20
:1010100004462B4B1B6813F0007F19D1FFF766FBCA
:10102000001B0228F5D903203FE0A36813B1B3F5F4
:10103000003F07D1224A536823F40033A1680B43D1
:101040005360D7E740F2CF211E48FFF7B9FAF1E726
:1010500000202AE0194B00221A66FFF747FB0446DE
:10106000174B1B6813F0007F06D0FFF73FFB001BF8
:101070000228F5D9032018E0002016E0012B16D035
:101080000F4B5B6803F48031226A914211D103F463
:101090007013626A93420ED1002006E0012070476F
:1010A000012002E0012000E0002002B070BD01201C
:1010B000FBE70120F9E70120F7E700BF000042420B
:1010C00000100240503500080070004086B0174BF9
:1010D0000FCB0DF1180C0CE90F0040F20123ADF815
:1010E0000430134B5B6803F00C02082A02D011484D
:1010F00006B07047C3F3834218326A4412F8100CEA
:1011000013F4803F0DD00A4B5B68C3F340431833A0
:101110006B4413F8143C074A02FB00F0B0FBF3F0F9
:10112000E6E7054B03FB00F0E2E700BF8835000867
:101130000010024000127A0000093D00002800F073
:10114000FC8070B50D460446036813F00F0F6DD098
:10115000022D71D87D4B1B6803F00703AB420BD205
:101160007A4A136823F007032B431360136803F0D4
:101170000703AB4240F0E380236813F0020F29D04D
:1011800013F0040F04D0724A536843F4E0635360D1
:10119000236813F0080F04D06D4A536843F460537A
:1011A0005360A3687BB1802B0DD0902B0BD0A02B6C
:1011B00009D0B02B07D0C02B05D0D02B03D0E02B0B
:1011C00001D0F02B3ED1624A536823F0F003A168AE
:1011D0000B435360236813F0010F4DD06368022B5B
:1011E00036D86368012B39D0022B3ED0584A12689A
:1011F00012F0020F00F0A58055494A6822F0030260
:1012000013434B60FFF772FA0646514B5B6803F0DD
:101210000C036268B3EB820F2ED0FFF767FA801BD6
:1012200041F288339842F0D9032079E04FF44E71AF
:101230004848FFF7C5F98BE740F239314548FFF7D9
:10124000BFF987E740F25F314248FFF7B9F9BAE7E3
:1012500040F266313F48FFF7B3F9C2E73C4A1268F3
:1012600012F4003FC8D101205AE0394A126812F046
:10127000007FC1D1012053E0344B1B6803F007030A
:10128000AB420AD9314A136823F007032B4313609A
:10129000136803F00703AB4255D1236813F0040F22
:1012A00014D0E3685BB1B3F5806F08D0B3F5A06FDD
:1012B00005D0B3F5C06F02D0B3F5E06F31D1244A49
:1012C000536823F4E063E1680B435360236813F031
:1012D000080F15D023695BB1B3F5806F08D0B3F563
:1012E000A06F05D0B3F5C06F02D0B3F5E06F1ED18B
:1012F000174A536823F46053216943EAC1035360DA
:10130000FFF7E4FE124B5B68C3F30313124AD35C8E
:10131000D840124B1860124B1868FFF77DF9002077
:1013200070BD4FF469710B48FFF74AF9C7E740F207
:10133000AB310848FFF744F9DAE701207047012094
:10134000EEE70120ECE70120EAE700BF00200240C1
:101350000010024050350008C8340008000000208A
:1013600008000020014B1868704700BF00000020F3
:1013700008B5FFF7F7FF044B5B68C3F3C223034ACA
:10138000D35CD84008BD00BF00100240D83400082C
:1013900038B50D460446D0B1FDB10F232360124B82
:1013A0005A6802F0030262605A6802F0F002A2601A
:1013B0005A6802F4E062E2605B68DB0803F4E06311
:1013C00023610A4B1B6803F007032B6038BD40F212
:1013D00023510748FFF7F4F8DEE740F224510448B0
:1013E000FFF7EEF8D9E700BF0010024000200240EE
:1013F000503500087047000010B504460368224AC3
:1014000093420FD0B3F1804F0CD0A2F594329342A7
:1014100008D002F58062934204D040F2CF111B48FD
:10142000FFF7CEF894F83D30DBB2012B27D1022331
:1014300084F83D302268D36843F00103D360236809
:10144000114A934210D0B3F1804F0DD0A2F59432DF
:10145000934209D002F58062934205D01A6842F0A7
:1014600001021A6000200BE09A6802F00702062AC7
:1014700007D01A6842F001021A60002000E0012043
:1014800010BD0020FCE700BF002C01409C35000887
:10149000704770477047704710B5044603681A6973
:1014A00012F0020F11D0DA6812F0020F0DD06FF0B7
:1014B00002021A610123037703689B6913F0030F8B
:1014C00070D0FFF7E6FF0023237723681A6912F034
:1014D000040F12D0DA6812F0040F0ED06FF004027D
:1014E0001A610223237723689B6913F4407F5FD03E
:1014F0002046FFF7CEFF0023237723681A6912F0F6
:10150000080F12D0DA6812F0080F0ED06FF0080240
:101510001A61042323772368DB6913F0030F4ED08D
:101520002046FFF7B6FF0023237723681A6912F0DD
:10153000100F12D0DA6812F0100F0ED06FF01002F8
:101540001A61082323772368DB6913F4407F3DD0B9
:101550002046FFF79EFF0023237723681A6912F0C5
:10156000010F03D0DA6812F0010F36D123681A692F
:1015700012F0800F03D0DA6812F0800F34D12368A4
:101580001A6912F0400F03D0DA6812F0400F32D11E
:1015900023681A6912F0200F03D0DA6812F0200FC6
:1015A00030D110BDFFF774FF2046FFF773FF8AE7C5
:1015B0002046FFF76DFF2046FFF76CFF9BE72046B4
:1015C000FFF766FF2046FFF765FFACE72046FFF711
:1015D0005FFF2046FFF75EFFBDE76FF001021A6173
:1015E0002046FEF781FFC1E76FF080021A612046B6
:1015F00000F0B9F8C3E76FF040021A612046FFF728
:101600004AFFC5E76FF020021A61204600F0AAF8F1
:10161000C7E7000003681B4A90420AD0B0F1804F30
:1016200007D0A2F59432904203D002F58062904236
:1016300003D123F070034A681343124A90420AD040
:10164000B0F1804F07D0A2F59432904203D002F55A
:101650008062904203D123F44073CA68134323F09D
:1016600080034A69134303608B68C3620B6883621B
:10167000044B984202D00123436170470B69036316
:10168000F9E700BF002C0140002865D010B50446E2
:101690000368324A93420FD0B3F1804F0CD0A2F5C9
:1016A0009432934208D002F58062934204D040F213
:1016B00013112B48FEF784FFA3683BB1102B05D014
:1016C000202B03D0402B01D0602B2DD123692BB1CF
:1016D000B3F5807F02D0B3F5007F2BD1A3690BB1A6
:1016E000802B2DD194F83D3083B3022384F83D3014
:1016F000214651F8040BFFF78DFF012384F8463093
:1017000084F83E3084F83F3084F8403084F841302B
:1017100084F8423084F8433084F8443084F845300B
:1017200084F83D30002010BD4FF48A710C48FEF75C
:1017300047FFCBE740F215110948FEF741FFCDE71F
:101740004FF48B710648FEF73BFFCBE784F83C3043
:101750002046FFF74FFEC8E701207047002C0140EC
:101760009C35000870477047842801D003307047CB
:101770000020704708B500F0D1FC002008BD2DE91D
:10178000F04387B004460F464569BDB18669AEB1E6
:10179000D0F80480D0F80090B0F90800FFF7E4FF1B
:1017A0000296019500903B4622694946404600F06A
:1017B00047FC0590059807B0BDE8F083656826688A
:1017C000D4F81080B4F90800FFF7CEFF05AB019301
:1017D00000903B461FFA88F23146284600F06AFC2A
:1017E0000128E7D00020E6E708B500B9012000F0A5
:1017F000DFFD002008BD00F1080343604FF0FF3219
:101800008260C360036100230360704700230361AB
:10181000704743684B609A688A60516099600861BC
:10182000036801330360704730B40D68B5F1FF3FC2
:1018300011D000F108031C465B681A68AA42FAD965
:1018400063684B6099608C60616008610368013374
:10185000036030BC70470469F2E70369416882683D
:101860008A60416851605A68824206D00022026153
:101870001A68013A1A601868704782685A60F5E77A
:1018800082B0002301930D4B1B68B3F1FF3F08D0DA
:101890004FF0500383F31188BFF36F8FBFF34F8F67
:1018A000FEE74FF0500383F31188BFF36F8FBFF350
:1018B0004F8F019B002BFCD002B070470C00002022
:1018C00006480068006880F3088862B661B6BFF316
:1018D0004F8FBFF36F8F00DF00BF000008ED00E007
:1018E0004FF0807340F8043C21F0010140F8081CDF
:1018F000034B40F80C3C40F8202C4038704700BFA8
:101900008118000800000000000000000000000036
:10191000074B19680868B0E8F00F80F30988BFF337
:101920006F8F4FF0000080F311884EF00D0E70475E
:101930002C1300204FF0500383F31188BFF36F8FF7
:10194000BFF34F8F0B4A136801331360012B00D094
:1019500070474FF0E023D3F8043D13F0FF0FF7D0AA
:101960004FF0500383F31188BFF36F8FBFF34F8F96
:10197000FEE700BF0C000020094B1B6843B94FF085
:10198000500383F31188BFF36F8FBFF34F8FFEE7D0
:10199000013B034A13600BB983F31188704700BF02
:1019A0000C0000200000000000000000000000000B
:1019B000EFF30980BFF36F8F0D4B1A6820E9F00F2A
:1019C00010602DE908404FF0500080F3118800F0BE
:1019D00015FD4FF0000080F31188BDE8084019683C
:1019E0000868B0E8F00F80F30988BFF36F8F704785
:1019F0002C13002008B54FF0500383F31188BFF378
:101A00006F8FBFF34F8F00F0CBFB28B14FF0E02377
:101A10004FF08052C3F8042D002383F3118808BDD2
:101A20004FF0E022002313619361054B1B680549C9
:101A3000A1FB03139B09013B53610723136170470B
:101A400000000020D34D621010B582B02A4B1A78E6
:101A5000D2B20192FF221A701B78DBB28DF80330EC
:101A60009DF8033003F05003244A1370244B0722DF
:101A70001A6009E0224A1368013B13609DF80330A5
:101A80005B00DBB28DF803309DF8033013F0800F5C
:101A9000F0D11B4B1B68032B08D04FF0500383F38E
:101AA0001188BFF36F8FBFF34F8FFEE71B02144AFD
:101AB000136003F4E0631360019BDBB20E4A137002
:101AC0004FF0E023D3F8202D42F47002C3F8202D0C
:101AD000D3F8202D42F07042C3F8202DFFF7A0FF6D
:101AE0000024084B1C60FFF7EBFE00F087FCFFF7BB
:101AF000C7FE204602B010BD00E400E00C07002045
:101B0000100700200C000020124A12F0070F1ED010
:101B1000D11D21F00701C1F5406313440A460E4868
:101B20000260002141601344083B23F007030B4887
:101B3000036059601960991A51601360084B19606D
:101B4000084B1960084B4FF000421A6070474FF481
:101B50004063E4E718070020241300201407002046
:101B6000201300201C13002018130020154B1A46C8
:101B70001B688342FBD3516802EB010C844509D0FA
:101B8000416800EB010C634509D00360904218D016
:101B9000106070474068014451601046F0E710B48F
:101BA000094C2468A3420AD05B6819444160136859
:101BB0001B680360904200D0106010BC7047046046
:101BC000F8E77047241300201407002070B505467D
:101BD00000F0DEFA344B1B68A3B1344B1B681D4286
:101BE0004AD135B1083515F0070F02D025F00705A9
:101BF0000835002D42D02E4B1B68AB424DD32D4AE9
:101C0000146804E0FFF780FFE7E722461C4663689C
:101C1000AB4202D22368002BF7D1234B1B68A342AF
:101C20003DD0166808362368136063685B1B102B71
:101C300010D9601910F0070F08D04FF0500383F34C
:101C40001188BFF36F8FBFF34F8FFEE7436065606E
:101C5000FFF78CFF626816490B689B1A0B601649E8
:101C600009688B4201D214490B60104B1B68134367
:101C700063600023236002E0002600E0002600F0FD
:101C80001BFB16F0070F0CD04FF0500383F31188A5
:101C9000BFF36F8FBFF34F8FFEE70026EFE70026FD
:101CA000EDE7304670BD00BF140700201813002078
:101CB0001C130020241300202013002080B338B50B
:101CC0000446A0F1080550F8043C164A1268134275
:101CD00008D14FF0500383F31188BFF36F8FBFF328
:101CE0004F8FFEE750F8081C41B14FF0500383F3CB
:101CF0001188BFF36F8FBFF34F8FFEE723EA020314
:101D000040F8043C00F044FA54F8041C064A1368F6
:101D10000B4413602846FFF729FF00F0CDFA38BDC9
:101D2000704700BF181300201C130020084B1B68CD
:101D30001B6823B9074B4FF0FF321A607047044B02
:101D40001B68DB68DB685A68024B1A60704700BF8B
:101D500030130020081400202DE9F047074698466C
:101D6000089DDDF824900A9C266B02F18042013A1E
:101D700006EB820626F007064FF0000CBCF10F0FB1
:101D80000BD811F80C2004EB0C0383F8342011F865
:101D90000C3013B10CF1010CF0E7002384F8433050
:101DA000062D00D90625E56265644FF0000AC4F8E7
:101DB00048A0201DFFF72AFD04F11800FFF726FDBB
:101DC0002461C5F10705A5616462C4F84CA084F8DC
:101DD00050A0424639463046FFF782FD2060B9F1F7
:101DE000000F01D0C9F80040BDE8F08738B50024E5
:101DF00007E004EB840293000E481844FFF7FBFC55
:101E00000134062CF5D90C4D2846FFF7F4FC0B4C99
:101E10002046FFF7F0FC0A48FFF7EDFC0948FFF702
:101E2000EAFC0948FFF7E7FC084B1D60084B1C6003
:101E300038BD00BF38130020DC130020F013002051
:101E4000101400203C14002028140020301300201F
:101E50003413002010B50446FFF76CFD214A1368C7
:101E600001331360204B1B685BB1204B1B686BB9BF
:101E70001D4B1B68DA6AE36A9A4207D81A4B1C604A
:101E800004E0194B1C601368012B28D0184A136812
:101E900001331360E06A01238340164A11680B4343
:101EA000136000EB8000211D134B03EB8000FFF754
:101EB000B0FCFFF761FD0D4B1B687BB10A4B1B6843
:101EC000DA6AE36A9A4209D24FF0E0234FF0805277
:101ED000C3F8042DBFF34F8FBFF36F8F10BDFFF713
:101EE00085FFD3E7C41300202C1300202414002006
:101EF000D4130020D81300203813002010B5044656
:101F000090F8513063B1012B11D0022B0ED04FF05D
:101F1000500383F31188BFF36F8FBFF34F8FFEE73A
:101F2000006BFFF7CBFE2046FFF7C8FE10BDFFF7A2
:101F3000C5FEFBE70F4B1B68D3B110B5FFF7FAFCEA
:101F40000D4BDB68DC68201DFFF787FC0B4A13682C
:101F5000013B1360074A1368013B1360FFF70CFD58
:101F60002046FFF7CBFF034B1B68002BE6D110BDCB
:101F7000704700BFC81300203C140020C413002089
:101F800008B5FFF7D7FF074B1B68012BF9D94FF0B6
:101F9000E0234FF08052C3F8042DBFF34F8FBFF3FF
:101FA0006F8FEEE73813002070B504460D461D4BC9
:101FB0001E681D4B18680430FFF74FFC50B91A4BD0
:101FC0001B68DA6A012303FA02F218490B6823EA54
:101FD00002030B60B4F1FF3F0DD03444124B1B6879
:101FE0005C60A64210D9124B18680F4B1968043177
:101FF000FFF71AFC70BD002DEFD00B4B19680431B0
:102000000C48FFF706FCF5E70B4B1868064B196800
:102010000431FFF709FC094B1B68A342EAD9074BBF
:102020001C60E7E7501400202C130020D813002078
:10203000341300202814002030130020081400203E
:1020400030B587B00B9C7CB10C9DB5B1542504957F
:10205000049D542D1AD04FF0500383F31188BFF321
:102060006F8FBFF34F8FFEE74FF0500383F311885C
:10207000BFF36F8FBFF34F8FFEE74FF0500383F333
:102080001188BFF36F8FBFF34F8FFEE70C9D2C635A
:10209000022485F8514000240394029505AC019474
:1020A0000A9C0094FFF758FE0C98FFF7D3FE0598A2
:1020B00007B030BD2DE9F04385B007468846144689
:1020C0001E469000FFF782FD00B381465420FFF7C3
:1020D0007DFD0546B0B1C0F83090E5B1002385F82C
:1020E0005130039302950D9B01930C9B0093334653
:1020F000224641463846FFF72FFE2846FFF7AAFE44
:10210000012005E04846FFF7D9FDE6E74FF0FF3034
:1021100005B0BDE8F0834FF0FF30F9E710B588B0A7
:1021200000240594069407AA06A905A8FEF75CF901
:10213000059B0293069B019300942346079A0E4940
:102140000E48FFF77DFF0E4B186090B14FF0500323
:1021500083F31188BFF36F8FBFF34F8F094B4FF09D
:10216000FF321A60084B01221A60084B1C60FFF70F
:102170006BFC08B010BD00BFD4350008811F0008FB
:1021800004140020081400202414002050140020FF
:10219000024A136801331360704700BFD013002058
:1021A000F8B53A4B1B68002B64D1394B1D680135DB
:1021B0001D60C5B9374B1B681B6843B14FF0500316
:1021C00083F31188BFF36F8FBFF34F8FFEE7314A60
:1021D0001168314B186810601960304A1368013378
:1021E0001360FFF7A3FD2E4B1B68AB4238D90027C5
:1021F0002C4B1B68DB6A03EB83039A002A4B9B582A
:10220000012B3CD901273AE00127224B1B681B68B0
:1022100043B3204B1B68DB68DC6863689D4226D3B0
:10222000261D3046FFF719FBA36A1BB104F1180005
:10223000FFF713FBE36A01229A401C490868024336
:102240000A6003EB83039A00314617481044FFF7F6
:10225000E0FAE26A134B1B68DB6A9A42D4D2D4E7F5
:102260000027D2E70E4B4FF0FF321A60C0E70C4A4E
:102270001360BDE70E4A13680133136000270D4B4E
:102280001B6803B101273846F8BD00BFD0130020FA
:102290005014002030130020341300200C140020B0
:1022A000081400202C13002038130020D81300201D
:1022B000CC1300205414002038B5354B1B6843B9AB
:1022C0004FF0500383F31188BFF36F8FBFF34F8F2D
:1022D000FEE7FFF72FFB2E4B1A68013A1A601B68C6
:1022E000002B4FD12B4B1B680BB900244BE0002473
:1022F000294B1B681BB3284BDB68DC6804F1180012
:10230000FFF7ABFA251D2846FFF7A7FAE06A01237D
:102310008340224A11680B43136000EB800029467A
:102320001F4B03EB8000FFF774FAE26A1D4B1B683A
:10233000DB6A9A42DCD31C4B01221A60D8E70CB14D
:10234000FFF7F4FC194B1C6884B9174B1C68D4B117
:102350004FF0E0234FF08052C3F8042DBFF34F8FAE
:10236000BFF36F8F01240EE0013C07D0FFF718FF89
:102370000028F9D00C4B01221A60F5E70B4B002224
:102380001A60E2E70024FFF7F7FA204638BD00BFE5
:10239000D0130020C413002010140020D8130020F4
:1023A000381300202C13002054140020CC130020DC
:1023B00010B5A8B10446104B1B6843B14FF0500351
:1023C00083F31188BFF36F8FBFF34F8FFEE7FFF7E3
:1023D000DFFE00212046FFF7E7FDFFF76DFF48B95C
:1023E0004FF0E0234FF08052C3F8042DBFF34F8F1E
:1023F000BFF36F8F10BD00BFD0130020204B1B68B0
:102400001BB1204B01221A6070471E4B00221A603C
:102410001D4B1B68B3FA83F3DBB2C3F11F0303EB5D
:1024200083018A0019498A5842B94FF0500383F357
:102430001188BFF36F8FBFF34F8FFEE7134903EB94
:10244000830082000A4450684068506003EB830CAC
:102450004FEA8C0208321144884209D003EB83030F
:102460009A000A4B13445B68DA68094B1A6070479C
:10247000406862469100054A0A445060EEE700BF9A
:10248000D013002054140020D8130020381300204B
:102490002C1300200C480D490D4A002302E0D458AB
:1024A000C4500433C4188C42F9D30A4A0A4C00239E
:1024B00001E013600432A242FBD3FEF7F7F800F00C
:1024C0000FF8FEF749F87047000000204404002090
:1024D000C03600084404002060140020FEE700001D
:1024E00070B50D4E0D4D761BB61006D0002455F874
:1024F000043B01349847A642F9D1094E094D00F03A
:10250000B1FF761BB61006D0002455F8043B013409
:102510009847A642F9D170BDB4360008B436000819
:10252000BC360008B4360008830730B548D0541EC6
:10253000002A3FD00346CAB201E0013C3AD303F877
:10254000012B9D07F9D1032C2DD9CDB245EA0525E4
:102550000F2C45EA054536D9A4F1100222F00F0CE4
:1025600003F1200EE6444FEA121C03F1100242E987
:10257000045542E9025510327245F8D10CF10102BE
:1025800014F00C0F03EB021204F00F0C13D0ACF19B
:10259000040323F003030433134442F8045B93421F
:1025A000FBD10CF003042CB1CAB21C4403F8012B7C
:1025B0009C42FBD130BD64461346002CF4D1F9E7B0
:1025C00003461446BFE71A46A446E0E7024B13B1A0
:1025D000024800F01FB8704700000000E125000825
:1025E00038B5084B084D5B1B9C1007D0043B1D44BD
:1025F000013C55F804399847002CF9D1BDE8384022
:1026000000F036BFC0360008BC360008704700BF77
:10261000704700BF002301461A46184600F000B874
:102620002DE9F047DFF87CA00646DAF8000098466E
:102630000F469146FFF7EAFF1B4B1B68D3F8484152
:1026400024B365681F2D26DC5EB96B1C0235DAF8F1
:102650000000636044F82570FFF7DAFF0020BDE852
:10266000F087012304EB8501C1F88890D4F8882114
:10267000AB401A43022EC4F88821C1F80881E4D186
:10268000D4F88C211343C4F88C31DEE703F5A6742B
:10269000C3F84841D5E7DAF80000FFF7B9FF4FF07B
:1026A000FF30DCE740040020DC350008FEE700BF17
:1026B00003685A004CBF43F0004323F00043184422
:1026C000704700BF2DE9F84339B34F1E0446154645
:1026D0003E464FF0000808EB060101EBD1714910AE
:1026E00004EBC1094846FFF7E3FF0346C800083082
:1026F0008F4220440BD0AB420BD8FFF7D9FF0138F3
:10270000A84201F10108E6D34846BDE8F883AB4290
:10271000FAD9884501D04E1EDDE74FF00009484642
:10272000BDE8F883012807D0022807D0044B002811
:102730000CBF184600207047024870470248704797
:10274000052E00080D2E0008152E000830B5244B6C
:10275000044683B08D1E3BB3284601A9AFF3008029
:10276000E8B101992A46FFF7ADFF0146B8B1FFF77E
:102770009FFF4B68A064012B2ED0002B27DB081D88
:10278000FFF796FF0023C4E913030368002B12DB55
:10279000FFF78EFF03460020236103B030BD002306
:1027A0000920236103B030BD0E4B0F491846C91AEA
:1027B000C9100191D6E7C3F30360FFF7B3FF002808
:1027C000034614BF00200920236103B030BD01235C
:1027D000081DC4E91303D8E7002305202361DCE7C3
:1027E00000000000EC350008B4360008036810B59E
:1027F000DA07044606D49B0700F1480009D5FDF727
:1028000011FD2368590709D51A070ED5DB0613D524
:1028100010BDFDF7FFFC23685907F5D404F1D00083
:10282000FDF708FD23681A07F0D404F5A870FDF73A
:1028300009FD2368DB06EBD404F5E870BDE8104021
:10284000FDF744BD0346006800B11844704700BF5F
:10285000704700BF70B504460E462046316CFFF746
:1028600075FF054698B9D6F840C03246214601208A
:102870002369C4F814C098470828EED0072806D169
:102880002846316CFFF7E4FF301DFDF7B7FC00F080
:102890008DFD00BF2DE9F0474FF0000AADF5727DC8
:1028A0000DF10C0E01F1040CC768D0F81880064633
:1028B0001446BCE80F00AEE80F00BCE80F00AEE81D
:1028C0000F00BCE80F00AEE80F009CE80F0002AD5F
:1028D0008EE80F00C5F800A021E02B6C4FF4F072D9
:1028E000294673617AA8FDF713FC314650463369D7
:1028F0007AAA9847889C82466C6433463246494699
:102900000120CDE90058B8470446F0B94FF4F07201
:1029100028467AA9FDF7FCFBBAF1080F1BD1304617
:10292000296CFFF713FF04F109095FFA89FA0446DD
:102930000028D2D0A96B3346696432460120CDE924
:1029400000584AF01001B84700B1092420460DF59F
:10295000727DBDE8F087BAF1070FF6D12046296CE9
:10296000FFF776FF03A8FDF749FC00BFF0B54FF075
:10297000FF37CB6BF9B00B6401AC01F1040C0E46D0
:102980000546BCE80F000FC4BCE80F000FC4BCE84C
:102990000F000FC49CE80F0084E80F00009706E0CA
:1029A0006A4629462B6998470828044608D12846D4
:1029B0001099FFF7CBFE0028F2D0092079B0F0BDC6
:1029C0006846FFF713FF062CF7D131462846FFF77C
:1029D00041FF00BF10B414468461DC6BC16000226B
:1029E0001C64194610BCFFF755BF00BF70B54369A2
:1029F000C6680B64AEB90A46036904460D46014633
:102A000002209847072805D008280FD129462046DC
:102A1000FFF720FF3046296CFFF71AFF281DFDF74E
:102A2000EDFB0122FFF736FF00F0C0FC00F0BEFC1A
:102A3000C26832B1D1F83CC00022C1F840C0FFF7F3
:102A400029BFFFF793BF00BF012912D009D873B97E
:102A50000F2A0CD800EB820042681846009B1A60CF
:102A600070470339012994BF0120022070470220DA
:102A700070470846704700BF002300B585B00A467E
:102A800003A900911946FFF7DFFF039805B05DF831
:102A900004FB00BF012912D009D873B90F2A0CD842
:102AA000009900EB820209681846516070470339AB
:102AB000012994BF01200220704702207047084678
:102AC000704700BF002310B584B003AC039200949C
:102AD0000A461946FFF7DEFF04B010BD70B54FF08F
:102AE000FF36D36BADF50E7D13640DF15C0E02F174
:102AF000040C05460C46BCE80F00AEE80F00BCE82D
:102B00000F00AEE80F00BCE80F00AEE80F009CE835
:102B10000F008EE80F00169612E00C2116A86A46E8
:102B2000FFF7D0FF214616A8A84778B969460820C4
:102B3000049B16AA98470528064608D0092805D000
:102B400068462699FFF702FE0028E6D0092616A857
:102B5000FFF74CFE30460DF50E7D70BD2DE9F04FB0
:102B60001E46CC6C89B054F8043B0D46174600F065
:102B700003080694002E79D002228DF81C201A0C2E
:102B80008DF81D201B04D2B2059304EB82042B6D3B
:102B9000B8F1020F08BFAC6B13F001030CD038463C
:102BA00005A900F091FA18B9082009B0BDE8F08F26
:102BB000092009B0BDE8F08FD4F800A0BAF1000FE9
:102BC000EDD0019300F008030293022E4AD0B4F82E
:102BD00000A0B4F802900434AA6C0F21384629F002
:102BE000010B9344FFF748FF834539D82AF00102CF
:102BF0005A44824294BF002001204FEA490303F067
:102C000002030AF0010A43EA0A03012B49D0022B0E
:102C100032D0002BCCD1B8F1000F02D0002840F008
:102C2000CE800434D4F800A0BAF1000FCDD13846DC
:102C300005A900F049FA0028BAD1019B002BB3D0B6
:102C40000F213846FFF718FF0E2102463846FFF7DE
:102C500039FF38460F216A4AFFF734FF0720A8E7FB
:102C60000020CAE7D4F804900834B5E71B020593A6
:102C70000323ADF81C308AE7236823F0004BB8F13A
:102C8000000F45D128B1029A002A5CD0BBF1000F99
:102C900074D0002B00DA04340BF1010B04EB8B042D
:102CA000C0E7B8F1000F19D1B0B163682268991C70
:102CB0004FEAD2723FF47CAF05F158010133049121
:102CC00000F09180201DFFF7BDFD04AB01462846B2
:102CD000AFF3008000285CD10834A3E70D2138460B
:102CE000D5F82090FFF7C8FE8145F5D1AB6A9C422C
:102CF000F2D12046FFF7DCFC0F2102463846FFF7F1
:102D0000E1FE38462A460021FFF7DCFE072050E7A7
:102D10000D213846D5F82090FFF7AEFE814501D051
:102D20002368B6E7AB6A9C42FAD104230022C5E9C6
:102D30000B23E318C5F828B06B632368002B5ADB1C
:102D400001230193A8E705F15803CDF80C809146C3
:102D5000B04604F1040A1E460EE050460496FFF702
:102D600071FD0022014604AB284609F101090AF170
:102D7000040AAFF30080E8B9D945EED10D213846F9
:102D8000FFF77AFE0346049A0620C5E909242B6260
:102D90000FE781460D213846FFF76EFEB9F1020FAD
:102DA000286225D12B46049A43F82C2F6B6206200B
:102DB000AC62FEE646462368DDF80C8069E72046F3
:102DC000FFF776FC02460434AC6328461446AFF3A2
:102DD000008000283FF4ECAE384622460F21FFF772
:102DE00071FE0720E5E60D213846FFF745FE286213
:102DF000049B6B62DBE70BF1010004EB800079E7D9
:102E0000000000000023FFF7A9BE00BF0123FFF769
:102E1000A5BE00BF0223FFF7A1BE00BF2DE9F0430E
:102E2000064615461C46C3B0042900F2B880DFE808
:102E300001F09C56B62D0300002C40F0B080102A03
:102E400000F2AD800368D80600F1F18020AF38466B
:102E5000FDF746FA012438460023B16B04FA03F269
:102E60002A4203F1010305D00A4652F804CB114669
:102E7000C0F800C0042B00F10400EFD13846B16364
:102E8000FDF724FA002043B0BDE8F083032C40F0A6
:102E9000868094B204EB1243102B4FEA12457ED881
:102EA00003681F0700F1CB8020AF3846FDF7ECF92F
:102EB000B26B07EBC50154B10B4601EBC401D01A4C
:102EC000E4001D5843F8045B8B42FAD12244384693
:102ED000B263FDF7B7F9002043B0BDE8F083012CE1
:102EE0004FEA124895B256D0052C58D108EB050987
:102EF000B9F1200F53D8B8F10F0F73D9A946002D9F
:102F000040F08480B36B65B320AF4FF0000907EB4E
:102F1000C807043F03EBC50553F8041BAB4247F851
:102F2000041FF9D1B9F1000F0FD06F4641461029A7
:102F300038BF102107EBC101843903EBC90553F8F1
:102F4000040BAB4241F8040FF9D1012C7FD0B8F14A
:102F50000F0FB56342D9B9F1000F02D06846FDF7F3
:102F600069F9002043B0BDE8F083C4B923460124C9
:102F7000826B371DA8B204FA03F101421CBF52F85C
:102F8000041B47F823100133102BF4D115F4005023
:102F9000E7D1B26304E008EB0503102B03D902204C
:102FA00043B0BDE8F083B8F10F0FF8D83368DA0703
:102FB00006D5304623F0030340F8483BFDF72EF9D1
:102FC00020AF3846FDF72AF9B36B002D9DD11D4681
:102FD00004353846B563FDF71DF9C2E720A8FDF7B3
:102FE00021F9B8E7B9F1100F3FD9A9F110093368F9
:102FF000D90708D5304623F0010343F0020340F817
:10300000483BFDF713F9B9F1000F31D033685A0787
:103010001FD4B8F10F0F24D96F46C8F110053846F8
:10302000FDF70CF9002DB36B80DD20AF6FE723F0C7
:103030001003336006F5E870FDF752F906E723F058
:103040000803036000F5A870FDF71EF92CE720AF18
:10305000BEE7304623F0040340F8D03BFDF7EEF81E
:10306000D7E720A8FDF7E2F8D6E74FF00009BEE762
:10307000B8F10F0F3FF646AF20AF3846FDF7D6F850
:10308000B36B002D7FF441AF3846FDF7CBF868E70E
:10309000027A03467AB9427AA2B14FF0030C416832
:1030A000013A427208680A1D5A60020283F808C099
:1030B000000E1A6070470068013A1A7202021A6024
:1030C000000E7047B02070472DE9F0434FF0000824
:1030D00005460E4685B03046FFF7DAFFB0280446B5
:1030E00000F0BA80070620D500F0F003802B4DD009
:1030F000902B36D0A02B60D0B02B73D0C02B00F01B
:103100008A8000F0F803D02B0BD100F007020132C7
:1031100005230121284642F40022FFF77FFE002804
:10312000D9D0092005B0BDE8F0838300DBB21F1DB4
:1031300000230DF10C0919460D222846CDF8009008
:10314000FFF782FC039B60064CBFDF1BFF180023C8
:103150000D2228461946CDF800900397FFF79AFCF8
:10316000B9E700F00D030D2BDBD0002303AF1946A8
:1031700000F00F0200972846FFF766FC00230D229F
:10318000284619460097FFF785FCA4E73046FFF76D
:103190007FFF24022043B0F5004FC2D0002304017A
:1031A00019462846A2B2FFF739FE0028B9D114F417
:1031B000004F18BF4FF001088DE7C3434FF47F6203
:1031C00003F007031A410023010702F47F6248BF9E
:1031D00042F4804228461946FFF720FE00283FF4BB
:1031E0007AAF9EE7B1283CD0B22800F0B080B32877
:1031F0004AD000F0FC03B42B93D0012300F0070267
:103200001A442846194642F40022FFF707FE002818
:103210003FF461AF85E7C6284FD0C72861D000F0E2
:10322000F803C02B70D0C8287CD0C9287FF479AFB0
:103230003046FFF72DFF05230246012128461403DF
:1032400002F00F0204F470240A442243FFF7E6FD63
:1032500000283FF440AF64E7B8F1000F1CD0002015
:1032600060E73046FFF714FF024600283FF459AFED
:1032700010F0F0037FF455AF19462846FFF7CEFD56
:1032800000283FF428AF4CE73046FFF701FF012349
:10329000024619462846D2E703AC43460E22414671
:1032A00028460094FFF7D0FB43460F2228464146AC
:1032B0000094FFF7EFFB404634E73046FFF7E8FEA7
:1032C00002460323140302F00F0204F470240132B7
:1032D000284619462243FFF7A1FD00283FF4FBAE24
:1032E0001FE73046FFF7D4FE024600283FF419AF2F
:1032F00010F0F0037FF415AF04212846FFF78EFD90
:1033000000283FF4E8AE0CE7032300F00F0201327F
:103310002846194642F42022FFF780FD00283FF49A
:10332000DAAEFEE63046FFF7B3FE0246012102F0B8
:10333000F00402F00F0210340A440523284642EA42
:103340000432FFF76BFD00283FF4C5AEE9E6002329
:103350000DF10C090D2219462846CDF80090FFF713
:1033600073FB3046FFF794FE02064FF002040CD5C3
:10337000039B00F07F00A040184403903046FFF705
:1033800087FE030604F10704F2D4039B00F07F02DA
:10339000A24003F501731A440023039228460D222C
:1033A0001946CDF80090FFF775FB94E6062008B5A6
:1033B00000F004F80120FFF779F900BF38B5154B8C
:1033C0001F281D6820D8D5F8DC22044662B152F8C7
:1033D00020304BB1012B15D0591C0FD0002542F8DD
:1033E00020509847284638BD284600F029F8224644
:1033F00001462846BDE8384000F00EB816230120EB
:103400002B6038BD002038BD16234FF0FF302B60F5
:1034100038BD00BF1000002070B50026074D0446DF
:10342000084611462E6000F015F8431C00D070BD10
:103430002B68002BFBD0236070BD00BF5C14002004
:1034400000F000B85822024B4FF0FF301A6070476E
:103450005C1400205822024B4FF0FF301A60704776
:103460005C140020F8B500BFF8BC08BC9E4670474D
:0C347000F8B500BFF8BC08BC9E467047D1
:10347C00B4340008C504000800000000000000007F
:10348C00800000000000000000000000C0340008B4
:10349C00D1040008000000000000000080000000C3
:1034AC00000000000000000064656661756C7454D7
:1034BC0061736B005461736B3200000000000000FC
:1034CC0000000000010203040607080900000000C8
:1034DC0001020304447269766572732F53544D33A1
:1034EC0032463178785F48414C5F44726976657238
:1034FC002F5372632F73746D3332663178785F6833
:10350C00616C5F636F727465782E630044726976C8
:10351C006572732F53544D3332463178785F48417E
:10352C004C5F4472697665722F5372632F73746D9E
:10353C003332663178785F68616C5F6770696F2EC3
:10354C0063000000447269766572732F53544D33D7
:10355C0032463178785F48414C5F447269766572C7
:10356C002F5372632F73746D3332663178785F68C2
:10357C00616C5F7263632E6300000000020304053C
:10358C00060708090A0B0C0D0E0F101000000000A6
:10359C00447269766572732F53544D3332463178C9
:1035AC00785F48414C5F4472697665722F53726341
:1035BC002F73746D3332663178785F68616C5F7429
:1035CC00696D2E630000000049444C45000000006A
:0435DC0018000020B3
:0C35E00008B10181B0B0008400000000C0
:1035EC00F4EEFF7FB0B0AA8034EFFF7F0100000043
:1035FC00E4EFFF7FA908B18008F0FF7F0100000015
:10360C0014F0FF7FB0B0AE8098F0FF7F0100000097
:10361C0030F1FF7FB0A90280C8F1FF7FB0B0A88065
:10362C0018F2FF7F0100000020F2FF7FB0B0AA80EB
:10363C0058F2FF7FAE71B28028F3FF7FAB3F38802A
:10364C0088F3FF7F0100000098F3FF7FB0B0AA80E1
:10365C00D4F3FF7F0100000078F4FF7FAA0DB28045
:10366C00F0F4FF7FB0AF088090F7FF7F01000000FF
:10367C00A0F7FF7FAD3F02800CFAFF7F0100000036
:10368C003CFAFF7FB0AD048018FDFF7F48FFFF7F41
:10369C0020FDFF7FA908B18074FDFF7FB0B0AA8028
:0836AC0094FDFF7F0100000006
:0836B400CD250008CD0300083C
:0436BC00A903000856
:1036C0000024F4000100000010000000AAAAAAAA29
:1036D000180000200000000000000000040300208B
:1036E0006C030020D4030020000000000000000054
:1036F00000000000000000000000000000000000CA
:1037000000000000000000000000000000000000B9
:1037100000000000000000000000000000000000A9
:103720000000000000000000000000000000000099
:103730000000000000000000000000000000000089
:103740000000000000000000000000000000000079
:103750000000000000000000000000000000000069
:103760000000000000000000000000000000000059
:103770000000000000000000000000000000000049
:1037800001000000000000000E33CDAB34126DE6E6
:10379000ECDE05000B00000000000000000000004F
:1037A0000000000000000000000000000000000019
:1037B0000000000000000000000000000000000009
:1037C00000000000000000000000000000000000F9
:1037D00000000000000000000000000000000000E9
:043B00005814002035
:040000050800249536
:00000001FF
